:1000000000100020E50D00007D4A00007D4A000040
:100010007D4A00007D4A00007D4A00007D4A0000C4
:100020007D4A00007D4A00007D4A00007D4A0000B4
:100030007D4A00007D4A00007D4A00007D4A0000A4
:100040007D4A00007D4A00007D4A00007D4A000094
:100050007D4A00007D4A00007D4A00007D4A000084
:100060007D4A00007D4A00007D4A00007D4A000074
:100070007D4A00007D4A00007D4A0000910C00008E
:100080008B4900007D4A00007D4A00007D4A000047
:100090007D4A0000851400007D4A00007D4A000072
:1000A0007D4A00007D4A00007D4A00007D4A000034
:1000B0007D4A00007D4A00007D4A00007D4A000024
:1000C0007D4A00007D4A00007D4A00007D4A000014
:1000D0007D4A00007D4A00007D4A00007D4A000004
:1000E0007D4A00007D4A00007D4A00007D4A0000F4
:1000F0007D4A00007D4A00007D4A00007D4A0000E4
:100100007D4A00007D4A00007D4A00007D4A0000D3
:100110007D4A00007D4A00007D4A00007D4A0000C3
:100120007D4A00007D4A00007D4A00007D4A0000B3
:100130007D4A00007D4A00007D4A00007D4A0000A3
:10014000013800D0FCE770472DE9F04F93B0CDE9BE
:100150000A32DDE91C530E9353EC102BCDE9080154
:10016000104619468DED060B1E9E04F049F980B12C
:10017000DDE906014FF0FF32C54B04F069F940B9E3
:10018000DDE906014FF0FF326FF4801304F042F90D
:1001900070B1DDE908019DED060B0E9B1E96CDE9C1
:1001A0001C53DDE90A3213B0BDE8F04F00F088B906
:1001B0000022DDE90601002304F02CF9002800F0FC
:1001C0003381DDE906A303F1004BCBF30A5016F4AB
:1001D0008063A0F2FF3008BF06250F9303F03EFEB8
:1001E0009BA3D3E9002303F0A3FE9BA3D3E9002341
:1001F00003F0E8FCCBF31304894644F07F518046BA
:100200000022A44B504641F4401103F0D9FC94A3C2
:10021000D3E9002303F08CFE02460B4640464946D4
:1002200003F0D0FC04F01EF9044603F017FE8EA381
:10023000D3E900238046894603F07AFE0022964BDC
:1002400003F0C0FC04F00EF989A3D3E900230746AC
:100250004946404603F06CFE80463846894603F026
:10026000FDFD85A3D3E9002303F062FE02460B46A1
:100270004046494603F0A4FC02460B46CDE90C2358
:1002800003F056FEDDE90C238046894610461946E8
:1002900003F098FC0022CDE91001804B404649460E
:1002A00003F070FF00227E4B03F08CFC02460B46ED
:1002B0004046494603F066FF00227A4B03F082FC79
:1002C00002460B464046494603F05CFFDDE90C233D
:1002D0008046894600204FF0804103F071FC0246C1
:1002E0000B464046494603F06DFC02460B46DDE9ED
:1002F000100103F047FF07F2FF3700226A4B03F0BB
:1003000061FC00223B0503F013FE52465B4680462B
:10031000894604F09DF8002840F08980CDE90C89D9
:1003200004F16303C72B34BF0427052731051BD510
:1003300053A3D3E900235046594604F07FF8002820
:100340007FD051A3D3E900235046594604F062F808
:10035000002876D00027A542C6BF2C1B04F1FF352C
:1003600000253C4646F480660E9B9F422CBF4FF012
:100370000008A3EB070816F0020903D0002F18BFEE
:100380004FF000083CB1DDE90C235046594603F01C
:10039000F9FE82468B46DDE906010022002304F0C7
:1003A00039F810B10BF100439B46DDE9080126F452
:1003B0000063CDE90183DDE90A324BEC10AB009517
:1003C00000F07EF802465FB3DDE9091316F0200F56
:1003D00000F10105089E0CBF65204520B047DDE90E
:1003E00008010523002205930A23002CCDE90232DF
:1003F00007F1FF374FEAD473B8BF64422A4601932E
:1004000004970A9B009404F074FD0246B9F1000FB2
:1004100006D00B9BC41A0B9B1A190E9BA34245D8FE
:10042000104613B0BDE8F08FDDE906ABCDE6002243
:10043000404649461A4B03F0A5FE013CCDE90C01AC
:100440006EE7002D90D00F9B002B8DD0013D8BE7E8
:10045000FB799F501344D33FB3C8608B288AC63FB3
:1004600061436F63A787D23F71A379094F930A4015
:100470001655B5BBB16B0240EF39FAFE422EE63F8E
:100480002D431CEBE2361A3F0000000080842E4111
:10049000FFFFEF7F0000F83F0000E03F00002C402E
:1004A00000002440000018400000F03F2020DDE95B
:1004B0000913089DA8470134ADE700BF0000000004
:1004C0002DE9F04F97B05BEC10ABDDE92057CDE99B
:1004D0000501CDE90723504652465B465946229E08
:1004E00003F08EFF70B90323CDE902760193B04B80
:1004F0000093DDE90501DDE9072304F01AFC17B0DC
:10050000BDE8F08F4FF0FF326FF48013504659462C
:1005100003F080FF28B10423CDE902760193A54BB7
:10052000E6E74FF0FF3250465946A34B03F090FFE9
:1005300068B1A24A06F00403002B08BF0322A04BB7
:100540001CBF13460422CDE902760192D0E7504643
:1005500093A3D3E90023594603F07AFF38B992A355
:10056000D3E900235046594603F054FF68B1DDE952
:100570000723DDE905014BEC10ABCDE92176209591
:1005800017B0BDE8F04FFFF7DFBD00220023504653
:10059000594603F03FFF002800F09A805B46524620
:1005A0000020002103F00CFB012382468B460993B7
:1005B00016F4806400F08E80092D40F28E800024B5
:1005C00030210EABA5F109020134202C03F8011BE8
:1005D000A5EB040901D09442F6D15946504603F0E8
:1005E00041FF784B054603EBC90393ED007B8DED8E
:1005F0000A7B03F033FC02460B465046594603F093
:10060000DFFADDE90A2303F093FC02460B46CDE94D
:100610000C2303F04FFF804603F010FC02460B460C
:10062000DDE90C0103F0CCFA02460B46CDE90C23C0
:100630000022654B03F00CFF002851D008F101089F
:10064000404603F0FBFB02460B46DDE90A0103F0DE
:10065000EBFE10B14FF000080135B9F1000F50D199
:10066000284603F0FBFB02460B465046594603F072
:10067000A7FA0022544B8046894603F0CBFE30B1E6
:10068000002240464946504B03F0E2FE10B1E80715
:1006900000D501350A210EAB1A19202C0AD095FB82
:1006A000F1F001FB1055303502F8015B01340546CD
:1006B0000028F2D106F00302012A57D1002F55D0AD
:1006C000099A12B916F00C0F00D0013F302245E014
:1006D00009906DE74FF006097FE7A94600247CE703
:1006E0000022DDE90C01384B03F094FE0028B4D160
:1006F000B8F1000F02D018F0010FAED008F10108D8
:10070000ABE70A210EAB2344202C0ED0B8FBF1F04E
:1007100001FB1082B8F1090F02F1300209F1FF3933
:1007200004F1010403F8012B11D83021A1440EAAD1
:10073000202CAFD0A14504F101030AD11C4609F1D8
:1007400058030DEB03092E2309F8203CA2E780464D
:10075000DAE7A1541C46EBE71A550134A74205D944
:10076000202CF9D1CDE902760194C1E6202CF9D0F4
:10077000099A3AB12D2104F158026A4402F8201C6A
:100780000134EFE7710704D504F158022B216A44C4
:10079000F4E73207E6D504F1580220216A44EDE778
:1007A0000000000065CDCD410000000065CDCDC149
:1007B000F8530000FC530000FFFFEF7FEF530000F1
:1007C000F4530000085400000000E03F0348044BCD
:1007D000834202D0034B03B1184770471C1000201E
:1007E0001C10002000000000064B0749C91A8910A0
:1007F00048BF0131491003D0044B0BB101481847E1
:10080000704700BF1C1000201C10002000000000DA
:1008100010B5064C237843B9FFF7D8FF044B13B14A
:100820000448AFF300800123237010BD381200206C
:10083000000000005854000008B5054B1BB10549E5
:100840000548AFF30080BDE80840FFF7CDBF00BF0B
:10085000000000001C10002058540000A3F5803A4E
:10086000704700BF174B002B08BF134B9D46FFF787
:10087000F5FF00218B460F461348144A121A04F064
:10088000D2FB0E4B002B00D098470D4B002B00D015
:1008900098470020002104000D000D48002802D0D8
:1008A0000C48AFF3008004F017F82000290004F092
:1008B0004CF803F0FFFF00BF00000800000000003C
:1008C00000000000001000201C1000206412002016
:1008D000000000000000000010B5094803F058F9BE
:1008E00004F02AF800F0C6F810EE100A03F0C8FA77
:1008F000BDE8104002460B46024803F049B900BF6C
:10090000A0500000A750000008B5002304220221D7
:10091000032001F0CDFC032100230422084601F04E
:10092000C7FC4FF08062024BC3F880211A6008BDFB
:1009300000E100E030B585B06C46194B194D0FCB86
:1009400084E80F0001230B221846022101F0B0FCBD
:1009500001230B221846032101F0AAFC124A134975
:10096000D2F8983428460B4043F4403343F0010357
:10097000C2F89834D2F894340B4043F4003343F077
:100980000103C2F8943403232146C2F8903401F0E5
:100990007BFD0022064B1A701023AB6005B030BD02
:1009A000B85000000000015A00C00350FCFFF0FFE7
:1009B0003F12002010B588B08DF807100421ADF863
:1009C0000E100DF1070104910121ADF80C00ADF8F6
:1009D00014100B4803A90692ADF81C3001F0A8FED4
:1009E000074C012805D040B10822064BC3F8A020CF
:1009F000FEE7204601F07CFDF3E708B010BD00BF24
:100A00000000015A00D0035070B586B06C462546F0
:100A10008DF80010511EC2F101025618B34219DCC4
:100A200001221344ADF80C300023ADF8040001A9F5
:100A30000E48ADF8062002950493ADF8143001F08D
:100A400077FE0A4C01280AD068B10822084BC3F887
:100A5000A020FEE711F8016F04F8016FDDE72046E2
:100A600001F046FDEEE706B070BD00BF0000015A80
:100A700000D0035038B500240E4A0F4D2146012303
:100A800090201470FFF7C0FF2A46022321469020D1
:100A9000FFF790FF2888C0BA03F0E0F90022074B67
:100AA00003F046FA03F026FD054B00EE100A1C7019
:100AB00038BD00BF3C120020391200200000703FFA
:100AC0003F12002010B5234C01F094F801F082FA97
:100AD000236F23F0070343F00303236704F028F890
:100AE0001D4B00209B6A9B075EBF01221B4B9A6235
:100AF000D4F8203123F0030343F00203C4F820317B
:100B0000D4F8243123F0070343F00203C4F824315E
:100B1000D4F8403123F0030343F00203C4F840311A
:100B2000D4F8603123F0030343F00203C4F86031CA
:100B3000D4F8403223F0030343F00203C4F84032F8
:100B4000D4F8003223F0070343F00203C4F8003264
:100B500010BD00BF0080005000C0005000E00050F9
:100B600008B501F08BFF01280ED1104B04205A6EFE
:100B70004FF480230E49520358BF0E4A4B6601F5CD
:100B80001041086258BF536602F0D6F903F01EFF09
:100B900002F062F902F0BAF902F080F9FFF792FF71
:100BA00002F06AF9BDE8084003F005BF008000507C
:100BB0000090005000A0005030B595B0244D0DAC11
:100BC0000FCD0FC495E80700032384E807008DF8D4
:100BD0004D3029231F4A2049CDE902231F4B0E2205
:100BE000CDE904134FF4807300210DF12600069324
:100BF00004F019FA4FF4A020194B0DAACDE9070310
:100C00000F238DF8243010238DF82530154B16480E
:100C10000A9320230B9301238DF83130134B07A93E
:100C2000009302AB02F03AFC044618B18821104848
:100C300003F038FF9DF832304FF4E130002B0CBF49
:100C40000321002103F00BFF204615B030BD00BF8B
:100C5000F8500000000006500005000600080007DC
:100C60002400065040120020801000203410002084
:100C7000C850000008B5FFF79FFF28B1BDE8084045
:100C8000B821024803F00EBF08BD00BFC8500000E5
:100C9000014803F0FDBF00BF801000201022014B6F
:100CA0001A61704700D003501022014B1A6170473F
:100CB00000E00350F0B589B03F4D01AC0FCD0FC43B
:100CC00095E8070084E80700012401213A2000F09C
:100CD000D7FD3A4F0121282000F0D2FD384B38468D
:100CE00001A903938DF8124002F050F82346042224
:100CF0000021022001F0DCFA2246214600230220D6
:100D000001F0D6FA022123460846042201F0D0FA67
:100D1000042223461146002001F0CAFA4FF00213C4
:100D2000284D0226C5F83036A3F58033C5F82C3699
:100D30001C23C5F834664FF44870C5F81C3602F021
:100D400067FC1420FFF7B0FF02F062FC2320FFF7DE
:100D5000A5FF02F05DFCB9213846FFF7A5FF03F0BF
:100D60001EFFFFF79BFF002330461A46194601F08D
:100D70009FFA002321461A46304601F099FA23468D
:100D800031463046002201F093FA002223461046F5
:100D9000042101F08DFA384601F02EFF00212820B1
:100DA000C5F83016C5F82C16C5F83416C5F81C164B
:100DB00000F066FD09B0F0BD1451000000C0055000
:100DC00000127A0000C003500348044A0449121A72
:100DD000921003F054BE00BF8854000088540000F5
:100DE0006412002008B500F02FF8FFF7EDFF124B5A
:100DF00012498B4212D30020114B12498B4218D357
:100E0000FFF730FD186850F82240586840F822403B
:100E1000013298688242F5D30C33EAE70022F8E702
:100E20001C6844F8220001325C68A242F8D30833FF
:100E3000E4E70022F8E700BF605400006C540000B3
:100E40006C5400006C54000010B54FF400414FF09A
:100E5000FF30124B124A9A60D3F8882042F4700295
:100E6000C3F888200F4A916601F1884101F50052CC
:100E700010664FF6DF7050660220C3F8D000BFF353
:100E80004F8FBFF36F8F08244FF440330648C0F8EC
:100E90008041D36004600B6110BD00BF00ED00E035
:100EA000000000000090005000E100E0014B1868D5
:100EB000704700BF04100020084B1B6F03F00703AE
:100EC000022B04D0032B05D0012B05D0FEE7044BE9
:100ED00018687047034BFBE70348704700800050D9
:100EE000041000200C100020002D310108B5FFF780
:100EF000E3FF054B1B6FC3F303330133B0FBF3F088
:100F0000024B186008BD00BF008000500010002098
:100F10000048704700B4C404014B1868704700BF14
:100F20000C100020054B1860054B1B6F03F00703E6
:100F3000032B01D1FFF7DABF704700BF0C10002070
:100F40000080005000487047002D3101014B1868A7
:100F5000704700BF0810002008B501213A2000F0BA
:100F60008FFC032101230422002001F0A1F90020BD
:100F700003F014FE0122214B4FF46070C3F84424A7
:100F800000F0A8FC1E4B00F5D520D3F8F02000F2AD
:100F9000FC4042F00102C3F8F020D3F8FC2042F0FC
:100FA0008072C3F8FC20174AA3F55D431A60164B04
:100FB0000222B0FBF3F0154B01381861C3F8F020A2
:100FC0004FF48072C3F804234FF06043104A0020AE
:100FD000C3F8B02F0F4AC3F8802ED3F8002E42F486
:100FE0008072C3F8002EFF2283F82020D3F8002E51
:100FF00022F48072C3F8002E08BD00BF00D0035059
:1010000000ED00E0FF030040F8590D00000004E08F
:1010100055CEACC50900010030B54FF06043D3F8A0
:10102000802ED20715D501240B4D8440D5F8FC2025
:1010300042F08072C5F8FC20D3F8002E2243C3F89A
:10104000002E53F82020002AF0D003F820100020B2
:1010500030BD1120FCE700BF00ED00E02DE9F04FAE
:1010600085B09A46554B06461B780F461546DDF867
:101070003C909DF844B0DDF85080002B00F0978044
:10108000072A00F296800E9B002B00F09280B9F1A7
:10109000000F00F08E80129BB3F5006F00F3898083
:1010A000012803D1109B002B00F08380444B03EBFD
:1010B00005131B7B002B7ED0424C1022002168467A
:1010C00003F0B1FF04EB45141022A7BB39462046BC
:1010D00003F0A9FF43F210036380BBF1000F03D1BB
:1010E000E37843F00303E370364A0E9B02EB451CA2
:1010F000CCE90193129B6901581E9DF84C30C0F356
:101100000A0003F003039B0643EA001E53582E48CF
:10111000012E00EA03004EEA0003CDF800A0535070
:1011200017D0B8F1000F2ED19CF8023068F30413E9
:101130008CF8023027E00021204603F074FF4FF4C2
:1011400044736380BBF1000FCED1E37843F03003EA
:10115000C9E713230CF1100ECCF80C309CE80F00FB
:101160008EE80F006FF00301DCF81C20109B61F388
:101170009F02012FCCF81C20CCF8143003D1CCF8FE
:101180001890CCF8043000270D4A290102EB051312
:1011900042F80180159A28465A60694622469F60A7
:1011A0005E7301F0ADFB384605B0BDE8F08F07482F
:1011B000FAE70748F8E70748F6E700BF60120020A3
:1011C00098110020981000200F80FFF3028000F09B
:1011D000018000F0078000F038B5124B05461B78FF
:1011E000DBB1E0B103F0C0FC0F4A00231146147BD1
:1011F00054B92B6001251A0101EB03131D738C50A8
:1012000003F0B8FC204638BD0133082B02F1100270
:10121000EDD103F0AFFC0548F5E70548F3E70548D5
:10122000F1E700BF6012002098110020048000F058
:10123000028000F0018000F038B503F095FC002337
:1012400005460B4A147B6CB90133082B02F11002DE
:10125000F8D101F0CDFA074B28461C7003F08AFC48
:10126000204603E0284603F085FC034838BD00BF54
:101270009811002060120020058000F010B50D4B81
:1012800004461B7893B1072812D803F06DFC0A4B73
:1012900003EB04131A7B2AB100241C7303F06AFCCD
:1012A000204610BD03F066FC0448FAE70448F8E75E
:1012B0000448F6E76012002098110020068000F034
:1012C000028000F0018000F013B5154B1868002370
:1012D00001908DF8043003F047FC124B1C7824B1C8
:1012E00003F048FC104802B010BD01221A7003F050
:1012F00041FC0E4B01A81C731C7783F82C4083F82B
:101300003C4083F84C4083F85C4083F86C4083F8A1
:101310007C4008238DF8073001F0A8FA2046E2E768
:101320003051000060120020038000F0981100206E
:1013300008B50A4A12785AB107280BD8084A02EBB6
:1013400000131B7B43B1002101F070FA002008BD9F
:101350000448FCE70448FAE70448F8E76012002074
:1013600098110020028000F0018000F0078000F05A
:1013700008B50A4A12785AB107280BD8084A02EB76
:1013800000131B7B43B1012101F050FA002008BD7E
:101390000448FCE70448FAE70448F8E76012002034
:1013A00098110020028000F0018000F0078000F01A
:1013B00008B50A4A127852B107280AD8084A02EB3F
:1013C00000131B7B3BB101F01BFB002008BD05484F
:1013D000FCE70548FAE70548F8E700BF601200207F
:1013E00098110020028000F0018000F0078000F0DA
:1013F0000D4B1B7893B1072812D889B10B4B03EB27
:1014000000131B7B73B10A4B1A6D012383401342F7
:1014100014BF0123002300200B707047054870475C
:101420000548704705487047601200209811002059
:1014300000000450028000F0018000F0078000F0FE
:1014400010B50B4A0C46127862B107280CD859B176
:10145000084A02EB00131B7B43B101F0EDFA207048
:10146000002010BD0448FCE70448FAE70448F8E708
:101470006012002098110020028000F0018000F02E
:10148000078000F02DE9F041174B1F6D5B6D1F4089
:1014900000D5FEE701260025144CDFF858803742BE
:1014A00018D02368C8F85060A3B1A168284601315C
:1014B0006268A1609847637B012B0BD150B90C4B3C
:1014C00003EB45131A7B60F341021A731A7F60F332
:1014D00041021A770135082D4FEA460604F110043F
:1014E000DDD1BDE8F08100BF00000450981100205C
:1014F0009810002000200450044BD3F88420D2061A
:10150000FBD4D3F88400C0F3811070470040005032
:1015100038B5104B0546D3F820310C4603F00303D1
:10152000022B0BD0032B0DD0012B0FD1FFF7BEFCEC
:10153000052305B1286004B1236038BDFFF7ECFC3A
:101540000323F6E7FFF7FEFC0223F2E70123002066
:10155000EFE700BF00800050F7B50027114B01975F
:10156000D3F88041064604F00304012C0D4608D050
:10157000022C12D041F2B1310B4803F093FA3C46F1
:1015800004E0394601A8FFF7C3FF0F240EB1019B09
:10159000336005B12C6003B0F0BDFFF7D3FC0190C0
:1015A000F4E700BF008000503451000038B51A4BFA
:1015B0000546D3F824010C4600F00700062821D880
:1015C000DFE800F0280410181C0C1400FFF76EFC74
:1015D000052305B1286004B1236038BDFFF766FC20
:1015E0000623F6E7FFF798FC0323F2E7FFF794FCE6
:1015F0000423EEE7FFF7A6FC0223EAE703F04AFA2A
:101600000723E6E7054840F6A87103F04BFA0023EC
:101610001846DEE70123DCE700800050345100006B
:1016200038B5104B0546D3F840310C4603F00303A0
:10163000022B0BD0032B0DD0012B0FD103F02CFA72
:10164000092305B1286004B1236038BDFFF77EFC93
:101650000823F6E703F023FA0B23F2E70123002027
:10166000EFE700BF0080005038B5164B0546D3F8B1
:1016700000020C4600F00700042819D8DFE800F04B
:1016800020030B0F130003F007FA092305B12860AC
:1016900004B1236038BDFFF759FC0823F6E703F0D7
:1016A000FEF90B23F2E7FFF721FC0E23800AEDE79A
:1016B000054841F26F4103F0F5F900231846E5E7CC
:1016C0000123E3E7008000503451000038B5124B8D
:1016D0000546D3F840320C4603F00303022B0BD02F
:1016E000032B0DD0012B0FD103F0D6F9092305B13F
:1016F000286004B1236038BDFFF728FC0823F6E713
:1017000003F0CDF90B23F2E7044841F2FA3103F07C
:10171000C9F900231846EAE7008000503451000060
:1017200038B5104B0546D3F860310C4603F003037F
:10173000022B0BD0032B0DD0012B0FD103F0ACF9F2
:10174000092305B1286004B1236038BDFFF7FEFB13
:101750000823F6E703F0A3F90B23F2E701230020A7
:10176000EFE700BF0080005010B40F4C0B46D4F8D8
:10177000204204F00304012C0ED0022C10D008B13A
:10178000002101600BB100221A6040F6D2710748B7
:101790005DF8044B03F086B95DF8044BFFF7B8BE63
:1017A0005DF8044BFFF73CBF00800050345100004F
:1017B00010B5B0F5207F34D009D8B0F5007F2AD01D
:1017C00003D898B1B0F5C07F10D0002421E0B0F567
:1017D000607FFAD1154BD3F88030C3F301149B0618
:1017E00017D5032C15D040F295210FE00F4B1C6F3D
:1017F000230B13F00E0FC4F303340AD0072C08D0C8
:101800000F2C06D0032C04D040F28521084803F0A9
:1018100049F9601C10BD054BD3F89040C4F3046433
:10182000F7E7024B1C6FC4F38024F2E700800050FE
:101830003451000010B54FF400320E4B04469A6646
:101840000020FFF7B5FF604341F671320A4C0B4BA5
:10185000A04294BF00200120D969DA639A6822F47B
:10186000401242EA00529A60CA0344BF0022DA637F
:1018700010BD00BF00900050005A620200000350EB
:1018800070B5460904460D460ED140F22F310D4881
:1018900003F008F9334604F01F047DB103F58053CB
:1018A0000122A2401A6070BD012E05D0064B074AE6
:1018B000022E18BF1346EEE7054BECE703F5005385
:1018C000EEE700BF34510000688000506082005095
:1018D0006480005030B585B0002380280446019311
:1018E00074D02AD8002877D0A0F12004412C32D817
:1018F000412C30D8DFE804F07073707388888888D2
:101900007373923FA8653F7373732F2F2F2F2F2F61
:101910008D57737373B2AD732F2F2F2F2F2F2F2F40
:101920002F2F2F2F2F702F707070882F2F2F2F2F6A
:101930002F2F2F2F2F2F2F2F7070B0F5806F63D088
:1019400024D8B0F5007F55D00BD8B0F5807F6AD091
:10195000B0F5C07F40D040F29441434803F0A2F874
:1019600037E0B0F5607F45D0F5D8B0F5207F36D0B0
:10197000B0F5407FEFD1FFF7B9FA04464FF420707D
:10198000FFF716FFB4FBF0F4640831E0B0F5C06F68
:101990005AD00DD8B0F5A06F3BD0B0F5B06F3DD0A8
:1019A000B0F5906FD7D1002101A8FFF7FFFD10E03F
:1019B000B0F5E06F4DD0B0F5F06F4FD0B0F5D06F0F
:1019C000C9D1002101A8FFF74FFE02E0FFF774FA2A
:1019D0000190019805B030BDFFF788FAF8E7FFF7EE
:1019E00085FA04464FF42070FFF7E2FEB4FBF0F4F2
:1019F0000194EEE7FFF760FA05462046FFF7D8FEB0
:101A0000B5FBF0F50195E4E7002101A8FFF780FDA3
:101A1000DFE7002101A8FFF7A7FEDAE7002101A810
:101A2000FFF79AFDD5E702934FF0E0231B695B07B0
:101A300005D5FFF75BFA0290029B0193C9E703A962
:101A400002A8FFF7EDFDF7E7002101A8FFF7E8FD89
:101A5000BFE7002101A8FFF739FEBAE7002101A87E
:101A6000FFF75EFEB5E700BF3451000008B58020E7
:101A7000FFF730FF034B98429EBF4FF48032024B7A
:101A80001A6708BD005A620200A000501FB500236B
:101A9000B0F5807F01937FD027D8382800F09C8054
:101AA0000BD82438092810D809280ED8DFE800F010
:101AB0006F6F6F6F0D0D670D3685522867D007D891
:101AC0003D283AD03E2800F08C8040F2795152E017
:101AD0008028FAD1454B1B6F03F00703013B032B12
:101AE00047D8DFE803F044413F75B0F5D06F64D0CC
:101AF00019D8B0F5A06F6FD00AD8B0F5806F46D076
:101B0000B0F5906FE1D1002001A9FFF74FFD3AE059
:101B1000B0F5B06F33D0B0F5C06FD6D1002001A9B9
:101B2000FFF77EFD2FE0B0F5006FECD00AD8B0F5DE
:101B3000E06F56D0B0F5F06FC7D1002001A9FFF7D4
:101B4000EFFD20E0B0F5086FBFD1284BD3F800318E
:101B500003F00303022B35D0032B37D0012B39D1EF
:101B6000FFF7DAF9032300E0052301930BE00223DA
:101B7000FBE740F2C6411E4802F094FF03E000205C
:101B800001A9FFF7E9FC019805B05DF804FB00200E
:101B900001A9FFF7BDFCF6E702934FF0E0231B69B4
:101BA0005B0705D5FFF7A2F90C230393039BDCE742
:101BB00003A902A8FFF734FDF8E7002001A9FFF709
:101BC00053FDE0E7FFF7C2F90823CEE702F062FF1A
:101BD0000723CAE70123C8E7002001A9FFF7C4FDD6
:101BE000D1E7002001A9FFF771FDCCE7008000508C
:101BF000345100004FF40022034B5A66012203F5D2
:101C000080439A62704700BF00900050F8B50368A7
:101C100004460F2B04D940F66D316C4802F042FFA8
:101C200063680F2B04D94FF43761684802F03AFF1C
:101C3000A3680F2B04D940F67331644802F032FFD9
:101C4000237B0F2B04D940F67631604802F02AFF3F
:101C5000637B0F2B04D940F679315C4802F022FFF8
:101C6000A37B3F2B04D940F67C31584802F01AFF81
:101C7000E37B3F2B04D940F67F31544802F012FF3A
:101C80002369032B04D940F68231504802F00AFF41
:101C90006369032B04D940F685314C4802F002FFFA
:101CA000E369012B04D940F68831484802F0FAFE76
:101CB0008020FFF7EBFE032800F087804FF400221E
:101CC000434B02215A6645F60E03424AC2F8803061
:101CD000414B9962012103F580539962936DD903B9
:101CE000FCD4D4E900131B0543EA0163E17B94F8BB
:101CF00020500B43217BE77E43EA0143617B6D016A
:101D000043EA0133A17B43EA811313619169D4E96A
:101D100004031B0643EA806301F000410B43A17EEC
:101D200094F823000B43217E43EA0143617E43EA9A
:101D300001239361136AE66923F00D0394F82210DE
:101D400043EA8703002E2DD11362966A94F821305E
:101D500045EA031326F033052B4343F00103936256
:101D60001E4D1C4B9A6D35EA0202FBD102221A4D20
:101D7000AA621A659A6D5200FCD41A69A56822F409
:101D8000700242EA05521A614FF00042124B9A610A
:101D900019B9022203F580539A6278B90122104BD7
:101DA0009A620BE0334343F008031362936A23F013
:101DB000330303432B4343EA4103936294F82430F3
:101DC0001BB1044B074AC3F88020F8BD3451000012
:101DD0000090005000C0005000D0005003000140AF
:101DE00000E00050F1A7FFFF014B93F9000070479E
:101DF0006112002010B543680446072B04D940F651
:101E0000B3512A4802F04EFEA368032B04D940F6D2
:101E1000B551264802F046FE2378032B04D940F63C
:101E2000B751224802F03EFE94F90130002B04DA4B
:101E300040F6B9511D4802F035FE4FF480011C4AAE
:101E4000637851664FF4D151022002F5B8325162E5
:101E500018494F2B48604FF0010028BF4F2301F570
:101E6000805148601169C903FCD4217843EA0123F9
:101E70005361D4E901131B0143EA0123617B0B4346
:101E8000217B43EA41039360E37BA17B1B0143EA8F
:101E90004113617C0B43217C43EA41035360A37CE3
:101EA00013B16FF4D153536210BD00BF3451000021
:101EB0000090005000100250014B1880704700BF86
:101EC00012100020014B1880704700BF1010002036
:101ED00010B5B0F5207F65D00ED8B0F5007F4FD09B
:101EE00003D800B3B0F5C07F1DD040F21231BDE879
:101EF0001040344802F0D6BDB0F5607FF5D14C1EDD
:101F0000012C06D9042904D04FF43D712D4802F06C
:101F1000C9FD2D4AD2F8803023F0300343EA041380
:101F2000C2F8803010BD4C1E012C0AD9102903D8EC
:101F3000264BCB40DB0704D440F2C721214802F0F6
:101F4000B1FD02F0E2FD02F0EEFD4FF48031204BD6
:101F50001D4A1967136F23F4704343EA0433136770
:101F6000FEF7C4FF0446FFF7C7FAC0F1020120469E
:101F700002F0D3FD00F03EF8BDE81040FFF776BD5B
:101F80004C1E1F2C04D940F206310E4802F08AFD87
:101F90000D4AD2F8903023F0F85343EA0463C2F8B4
:101FA0009030BFE74C1E012C04D94FF44371054813
:101FB00002F078FD044A136F23F4806343EA84231C
:101FC0001367AFE73451000000800050100101009A
:101FD0000090005008B50121022000F027F802F01F
:101FE00094FD02F0A0FD4FF48032014B1A6708BD4A
:101FF0000090005008B54FF4C070FFF76BFCBDE8CF
:1020000008400449884294BF012102214FF4207006
:10201000FFF75EBF80F0FA02034A0179D36E23F026
:1020200030030B43D366704700400050F8B50446B8
:10203000244BD3F88420D006FBD4D3F88430C3F3E8
:1020400081139C423CD0FEF737FF012C05460BD193
:102050001D4B984204D940F281711C4802F022FDC8
:102060000121284602F059FD02F077FD4FF0007281
:10207000174B07465A66204602F07FFD4FF48063F7
:10208000104E621E93403367736E9A0103D4D6F8E4
:1020900084309B060AD5384602F063FD022C0FD12E
:1020A0002846BDE8F840002102F037BDD6F884305C
:1020B0009906E9D540F28F71044802F0F3FCE3E79A
:1020C000F8BD00BF00400050005A6202635100009A
:1020D0000060005010B50C4608B9FEF7EDFE074B46
:1020E00021461B783BB1064B984204D80120BDE83D
:1020F0001040FFF79BBF0220F9E700BF62120020EB
:10210000005A620238B54FF00042264B26495A6603
:1021100001224A604AF6CD3103F50B235D6C196448
:10212000154030BB9968C9070BD4002401221F4B0E
:102130005A6015B11E4B1F4A1A6402F01FFD20465B
:1021400038BD1A498A601C4AD96ACC0705D4904226
:1021500001D10724EAE70130F6E79042E5D1F8E73C
:102160000132DC6A14F0080406D08A42F8D1072450
:10217000DFE700221049F4E78A42F8D020220B4B17
:102180000B495A620122A3F580539A6023460A4AFA
:10219000486A800603D49342E9D00133F8E79342BA
:1021A000C7D1E4E70090005000500950006009508A
:1021B000004009503254FFFF40420F0038B54FF045
:1021C0000042174B174C5A66012203F50C235A6044
:1021D0004AF6CD33656C2364437893401343124A27
:1021E000D363C3788178A2689B0043EA011322F08D
:1021F00074021343A3600279837943EA02232361C3
:102200004279C37943EA022363610078FFF77AFFDA
:10221000EB0744BF054B236402F0B0FC012038BD3E
:102220000090005000400950004000503254FFFF21
:1022300038B5032804460D4605D80B4B33F810304B
:10224000CB40DB0704D440F22D41084802F02AFCC1
:1022500030220123544341F2100204F1A044AB4068
:1022600004F57034A35038BD28520000925100008C
:1022700038B5032804460D4605D80B4B33F810300B
:10228000CB40DB0704D440F2FE31084802F00AFCE0
:1022900030220123544342F2100204F1A044AB4027
:1022A00004F57034A35038BD28520000925100004C
:1022B000F8B5032804460D4616461F4605D81C4BA4
:1022C00033F81030CB40DB0704D44FF4B071194819
:1022D00002F0E8FB26B129462046CFB1FFF7A8FF60
:1022E00004EB4403072D4FF00F014FEA031312D8FC
:1022F000A80006FA00F281400F48184402F03FFCA3
:10230000AEB92946204677B1BDE8F840FFF790BF47
:10231000FFF7AEFFE4E7A5F10800800006FA00F23F
:1023200081400648E9E7BDE8F840FFF7A1BFF8BDE6
:1023300028520000F851000004C003500CC00350A4
:10234000F8B506460F461546002A6AD003F0030486
:10235000836823F44073836002F0FFFBB26882EA73
:10236000042303F440735340B36002F0FAFB37B91F
:102370002D4B9E420DD12E20FFF7ACFA0746B368D5
:102380009A0717D5012C1BD0022C27D064B9274BF4
:1023900017E0274B9E4201D12F20EDE740F22F118D
:1023A000244802F07FFBB3684FF4B271214802F079
:1023B00079FB08E0012C13D0022CE7D11E4B00E082
:1023C0001E4B9F42F0D91E4B1B5D6B430AD140F25E
:1023D0007511BDE8F840174802F064BB194BF0E7EF
:1023E000194BEEE7A3EBC504013C3C44B4FBF3F40A
:1023F000013C0CD540F27B110E4802F053FB4FF428
:10240000BE710C4802F04EFBB368B461F8BDB4F580
:10241000007FF4D2B3689B07F7D5002C08BF0124D6
:10242000F3E740F21511D4E70000015A80841E0042
:102430000080065030520000002D3101404B4C000E
:102440005F520000809FD5004054890038B50B4B87
:10245000044698420D4607D0094B984204D040F2FA
:102460009511084802F01EFB043425B104F5805490
:102470000123236038BD04F50054F9E70000015A38
:10248000008006503052000038B5154B0446984283
:102490000D4607D0134B984204D04FF4D571124823
:1024A00002F000FB0023114A236404F50053DA63B1
:1024B0006A7804F108037AB903F5805302221A609E
:1024C0002046D5E901122B7BFFF73AFF20462978F9
:1024D000BDE83840FFF7BABF03F50053EEE700BF91
:1024E0000000015A0080065030520000FFFF1F001C
:1024F00070B5894B98420AD0884B98421DD08848C5
:1025000040F2012102F0CEFA6FF0030070BD854B5E
:102510009968C26B12F4C06F15D091050FD5FD22DA
:102520005A7009221A700022026493F901100129DD
:1025300000D15A7093F90100E8E77B4BE8E75605B4
:10254000EFD5FE22ECE71C78082C00F2E180DFE8F2
:1025500014F009001F004500530070007E009C002D
:10256000A700D6004C880A88E5060AD5120A02F0B0
:10257000060242F0F002012119704263C16001209D
:10258000C4E702F0FE02A10748BF42F00102F2E7F1
:10259000160608D5802100F50052D1634FF6087267
:1025A0001A80022318E05506E9D5402400F50052B0
:1025B000D4634A88D40604D502221A700B78436388
:1025C000DDE796076AD507221A701B7901EBC30372
:1025D0001B89012BD3D10823C360D0E71506D9D4BA
:1025E0005406CCD5402400F50052D4634A889207A3
:1025F00054D503221A708CE74C880A88E60643BF3C
:10260000120A02F0060242F0F00202F0FE02650732
:1026100009D51C7942F0010201EBC40109890129A5
:1026200004BF0821C160042119700123C360426303
:10263000A5E71406AED45206A1D5402400F50052F9
:10264000D4634A88560729D507221A7097E71A7962
:102650005D8801EBC2042689AE420FD80024013206
:10266000D2B21A715C804C886507C2D4E40702D4E8
:10267000012A7FF64EAF08221A7092E76268691C41
:102680005980525D42630622DFE7160682D4550662
:102690007FF575AF402400F50052D4630522A9E709
:1026A00094067FF56CAF456A204C46691A79344030
:1026B000B4F5003F04BF466A4FF4005601EBC20177
:1026C00000F500540A8908BFE6632026E6635C88AB
:1026D000A24281BF4968661C5E800D5559888A42B6
:1026E000C9D90424012AC46004D0013A914201D11D
:1026F0000822C2601A78092A3FF415AF3FE7D205D5
:102700007FF53DAF4FF4807100F50052D16308E7CB
:102710004FF609321A8006E70000015A0080065081
:102720003052000018120020241200202000020065
:1027300038B5294B044698420D4607D121B940F2DD
:102740006A31264802F0AEF9254B13E0254B98423A
:102750000DD040F26931214802F0A4F925B940F2C8
:102760006A311E4802F09EF96FF0030038BD00295F
:102770002AD01D4B2269D00744BF2022E2606A881C
:10278000910702D529890029EED0520702D52A8A5D
:10279000002AE9D04FF480721A6000229D601A71FD
:1027A000C023E3606369DB0514D4202204F50053E1
:1027B000DA630E4A2046DA63236C43F4FC63236435
:1027C000BDE83840FFF794BE40F26A31034802F09A
:1027D00069F9CEE7636AE5E70000015A305200006C
:1027E000181200200080065024120020FFFF1F0056
:1027F00010B54FF400120B4BC3F88020BFF34F8F7E
:10280000BFF36F8F0024FF22074B21465C65202019
:102810009A625C60FFF734F82146BDE81040212041
:10282000FFF72EB800E100E00000045038B507289B
:1028300004460D4603DD7721084802F033F91F2CCA
:1028400003D99121064802F02DF9064A064B002DC6
:1028500008BF13460122A2401A6038BD635200002F
:1028600093520000401004504020045010B504461C
:1028700018B991211F4802F015F923781B0613F0AF
:10288000604F03D092211B4802F00CF9E3780F2B24
:1028900003D9A321174802F005F901212020FEF7F2
:1028A000EFFF01212120FEF7EBFF0122124B5A60BE
:1028B000227812069A606178A27842EA01429A610F
:1028C000FF229A6200229A631A644FF000425A650E
:1028D0004FF0FF324FF4001103F500531A65074A19
:1028E000C2F88011E3781B01DBB282F81533116066
:1028F00010BD00BF635200000000045000E100E082
:102900002DE9F0410126C3B2072805460C46904642
:1029100006FA03F603DDEC21354802F0C3F81CB9D2
:10292000ED21334802F0BEF8236823F47C1323F032
:102930000F031BB1F0212E4802F0B4F8A37A1B0458
:1029400013F47C0F04D040F20911294802F0AAF8D0
:10295000E37A1B0513F07E6F04D040F20B1124487C
:1029600002F0A0F8237B5B0513F0FE5F04D040F279
:102970000D111F4802F096F81E4B1F4F1E6522686E
:1029800003F5005343F82520302202FB0575637BD5
:102990002B66E37AA27A1B0543EA0243227B43EAD1
:1029A0004253EB6528F003032B6702F0DDF87B6DE3
:1029B00033437B65237A13B13B6C33433B64637AC7
:1029C00013B1BB6B3343BB632279A37943EA024360
:1029D000084A93616179E37943EA014307498B61CE
:1029E000054B56639E64BDE8F04102F0C3B800BFDA
:1029F00063520000002004500000045000100450F6
:102A000010B50124C3B2072804FA03F404DD40F230
:102A10009711074802F046F802F0A6F8054B5A6DE8
:102A200022EA04025A659C62BDE8104002F0A2B896
:102A3000635200000000045010B50124C3B20728FF
:102A400004FA03F404DD40F2B5110A4802F02AF852
:102A500002F08AF8084BDA6A224208D15B6B9C4389
:102A60000CBF0124002402F085F8204610BD00248C
:102A7000F9E700BF6352000000000450024B1868E1
:102A8000C0F30740704700BF0080E00FF8B507466D
:102A90000C461D4616464AB94FF4A171314802F062
:102AA00001F824B1402D09D1062328E021B94FF4C3
:102AB0002070FEF70FFF0446402D42D0402D09D86C
:102AC0007DB1202D17D040F28911BDE8F84025488E
:102AD00001F0E8BF602DF6D1B6EB940F3CD804238B
:102AE0000DE0B6EB141F04D94FF4BA711D4801F084
:102AF000D9FF102303E0B6EBD40F1CD808235E43A4
:102B0000730803EB4413B3FBF6F3174E203BB6EB0D
:102B1000C30F4FEAC30404D24FF4D071114801F03F
:102B2000C1FFBB68344023F06003BB60BB681D433A
:102B3000BD60FC61F8BD40F279110A4801F0B2FFB6
:102B4000DCE70623B4FBF3F3B342ADD24FF4BF711D
:102B5000044801F0A7FFA7E740F28311014801F004
:102B6000A1FFBCE7F8520000F8FF7F0070B50646F1
:102B70000C46154622B940F28E210C4801F092FF16
:102B800024B94FF42070FEF7A5FE04466D00013C09
:102B9000B4FBF5F4064B250213EA042304D040F2FB
:102BA000B321024801F07EFFF56170BDF8520000CC
:102BB000070080FF38B50E4B044698420D4608D0FA
:102BC00003F58043984204D04FF43371094801F073
:102BD00069FF012204F580535A60EB43934003F0F0
:102BE0000A036361656115B904F50054626038BD7C
:102BF00000C00550F852000010B5174B044698422B
:102C000008D003F58043984204D040F24241134873
:102C100001F048FF012204F580535A6040F6AA6390
:102C200041F20502636100230D49A360E365E260A0
:102C300004F500522361E361E36491640649A365EE
:102C40008C4203D123650023636502E005498C4271
:102C5000F8D00123536010BD00C00550F8520000A9
:102C6000FFFF01000000065070B5444B0446984237
:102C70000D4608D003F58043984204D040F2FD2170
:102C80003F4801F00FFF2046FFF7B6FF012304F590
:102C900080567360AB7C1BB1A36843F08043A36094
:102CA000EB7C5BB1354A2B7D944245D1A2F51032C5
:102CB000C2F88C31E36D43F08003E3652A8A6B7BB5
:102CC00020461343EA891343E3602B7BD5E90112C5
:102CD000FFF7DCFE6B7D1BB1A36843F48033A36078
:102CE000AB7D1BB1A36843F40043A360EB7D2A7E58
:102CF0001B07120502F4E00203F0E0431343A3654F
:102D0000697E1E4A8B1E012B1E4B1FD894421BD07E
:102D100002F5804294420CBF01224FF0FF3203EBD8
:102D20004213022041F21C620329985020D104234F
:102D3000F3652B78636170BD134A944204BFA2F51A
:102D40002032C2F89C31B5E70022E8E794420DD06A
:102D50000D4A94420CBF01224FF0FF3203EB4213A5
:102D6000022042F21C6201299850DFE70022F5E7B9
:102D7000042204F50053DA65DBE700BF00C005500C
:102D8000F852000000C003500000065038B52F4B29
:102D9000044698420D4608D003F58043984204D07B
:102DA00040F269312A4801F07DFE2046FFF724FFFA
:102DB000012204F580535A602B8AA26843F0010374
:102DC0001343AA7B43EA8223A360A3682A7D43EAD4
:102DD0004273A360AB7C5BB11C4AEB7C94422DD167
:102DE000A2F51032C2F88C31E36D43F08003E36545
:102DF0002B7B2046D5E9011243F48053E360FFF7B3
:102E0000B5FE6B7B0BB1102363616B7D1BB1A368B7
:102E100043F48033A360AB7D1BB1A36843F400434C
:102E2000A360EB7D2A7E1B07120503F0E04302F44A
:102E3000E0021343A3652B78636138BD054A9442D1
:102E400004BFA2F52032C2F89C31CDE700C0055086
:102E5000F85200000000065007B56B46054A10689E
:102E6000516803C36846FFF7A9F9002003B05DF875
:102E700004FB00BF2953000013B50024064A68462E
:102E8000536F43F00103536700948DF80440FFF73C
:102E9000C3F8204602B010BD0040005030B58BB0E2
:102EA0006C46174D0FCD0FC40FCD0FC495E803002E
:102EB00084E80300134BD3F84C2112031CD5A3F56F
:102EC000FE431C884FF6FF739C4208BF78248DF8A0
:102ED0001940FEF789FF204480F308008DF81800A0
:102EE0000948FEF71FF86846FEF790FE3220FEF70D
:102EF000E9FF00200BB030BDD3F85041E4B2E6E763
:102F0000345300000080E00F00F0490230B587B074
:102F1000084D01AC0FCD0FC42B6801A823602523F9
:102F20008DF80530FEF766FF3220FEF7C5FF002062
:102F300007B030BD5C53000010B56FF004035021A2
:102F40000A480B4C13F0800F03F1010207D1234410
:102F5000402A83F800131346F4D1002010BD03F07B
:102F60000F03043B034419761346EBE700ED00E042
:102F700000E100E010B5044601F0EFFD024B1C60DB
:102F800001F0EFFD002010BD3012002010B501F05F
:102F9000E4FD034B1C6801F0E4FD204610BD00BFBA
:102FA0003012002038B53022037A0446534303F12F
:102FB000A04303F58023DD6ED0E9032313449D4233
:102FC00001D8AA4204D94FF43E71054801F06AFDC8
:102FD000D4E9030303449D4218BF284638BD00BF0F
:102FE0007053000030B587B0144605461046FFF711
:102FF000D9FF6369024683423CBFD4E903315B18C1
:103000001B1AABB11249049403910021CDE901319F
:10301000012300932846D4E9001301F05CFD20B1A0
:103020004FF434710B4801F03DFD002007B030BD76
:103030000122627694F82D20002AF6D084F83530EB
:103040001321E369204698472046636A9847ECE7D6
:10305000E52F0000705300002DE9F04788B00446CA
:103060000F461646984601F07FFD8146002E00F07F
:10307000AD80237E03F0FF02002B00F0E0802046AD
:10308000FFF790FF63698246984206D1637E23B9B9
:1030900040F27F316B4801F005FD6569AA459DBF8F
:1030A000D4E903329B185D1BAAEB0505B54228BF86
:1030B000354601F059FD94F82D308246002B40F042
:1030C00096802A463846616901F0B5FF63692E464D
:1030D0002B4463612CE06069037803F0FD01112942
:1030E00040F08280216B884205D1A3F111014B424F
:1030F0004B4184F83430013E6369216B01328B42CD
:1031000003F1010308BF236363619542E3D1D4E96E
:103110000323216B1344994208BF2263216B8A4227
:1031200001D88B4204D84FF46D71464801F0BAFCC7
:10313000D4E9032361691344994208BF626161695C
:103140008A4201D88B4204D84FF471713D4801F096
:10315000A9FC0023207A6376FEF7EAF820B140F25A
:103160001131384801F09EFC2046FFF71BFF6369D0
:1031700083423FD10023E568237694F82D306561C2
:1031800003B125632046636A98472F4B0494039349
:103190000023029323692A46019301230093636865
:1031A0002168207A01F097FC20B140F22D312548AA
:1031B00001F078FC207AFEF7DBF820B140F25131C3
:1031C000204801F06FFC504601F0D4FC4846C8F896
:1031D000006001F0CFFCD8F80030002B0CBF1B20A2
:1031E000002008B0BDE8F08707F8013B84E72E46D1
:1031F00000228AE70123207A23760DF11E01FEF7D3
:103200001FF920B14FF450710E4801F04BFC9DF8AE
:103210001E30207A002BCDD00DF11F01FEF7E8F80B
:1032200020B140F24631074801F03CFC9DF81F10E8
:10323000207A0029BED12246FFF7D4FEBAE716460F
:10324000C4E700BF70530000E52F000070B50446CE
:103250000568FFF79BFE844202D10020FFF78AFE3B
:1032600095F93630002B11DB012203F01F015B09B9
:103270009B0003F160438A4003F56143C3F880215A
:10328000C3F88020BFF34F8FBFF36F8F287AFEF70C
:103290008FF820B14FF4ED71104801F003FC287A4B
:1032A000FDF7ECFF20B14FF4EF710C4801F0FAFB91
:1032B000FDF7C2FF38B10A4B984204D04FF4F171C8
:1032C000064801F0EFFB00232846C4E90033C4E9B7
:1032D0000433A360AB6ABDE8704018477053000028
:1032E000058000F02DE9F84304460D4690F82C8047
:1032F000DFF8AC908E18AE4228D094F82D3083B110
:1033000001F032FC237E07461BBB226B63699A42A5
:1033100004D040F2F911484601F0C4FB384601F0F0
:1033200029FC94F83430002BE5D0B8F1000F06D01A
:103330002B780A2B03D10D212046E36998472046BC
:10334000E36915F8011B98470028D4D00020BDE898
:10335000F8832046FFF726FEE1680138884238BF2F
:103360002069D4F830C03CBF00F1FF30401803465C
:103370009C450BD013F80129112A01D0132A07D13B
:10338000A2F111035A425A4184F834202063C5E760
:10339000994282BF236903F1FF335B18E8E700BF5E
:1033A00070530000F0B587B00C4606461546002164
:1033B000382220461F4601F036FE95E80300002320
:1033C0002A692376EB6884E80300C4E904232A7D94
:1033D000E36084F82C20AA7D2363012384F8343031
:1033E00084F835300C9B84F82D2023620D9BE76117
:1033F00063620E9BA3622B7A84F83630204B3460D4
:103400007360204BB360204B3361204B7361204BC2
:10341000F360FDF759FF30B11E4B984203D01024E2
:10342000204607B0F0BD002104F10800FDF7D4FEEE
:103430000028F4D10127184B0494CDE90203236935
:10344000009701936368E2682168207A01F043FBEA
:1034500004460028E3D195F90830002B0BDB03F07C
:103460001F025B099B0003F16043974003F5614332
:10347000C3F880711F603046FFF77CFDD0E700BFC6
:10348000E532000059300000F54B0000FB4B000016
:103490004D320000038000F0E52F00002DE9F041DF
:1034A00086B01C46554B01270293554B0C9D01934A
:1034B0000023904600930A46CDE903772946514BF5
:1034C000FFF770FF0646002840F0908023683946D9
:1034D000AB6363683A20EB63637A85F84130237A03
:1034E00085F84030E37A85F84330A37A85F8423096
:1034F000637B85F84530237B85F84430E37B85F892
:103500004730A37B85F84630FEF7BAF93B460422E4
:10351000617A207AFEF7CCFE3B460222E17AA07A5D
:10352000FEF7C6FE39466068FEF7AAF988F8006023
:1035300041462068FFF798FB1422637C5B0103F18E
:10354000A04303F57033C3F81C26617A227A42EA5D
:103550000142C3F83426E17AA27A42EA0142C3F872
:103560002C2685F8486098F81930032B44D8DFE8FA
:1035700003F03441021C022385F848300023042262
:10358000E17BA07BFEF794FE022741F21C61627C86
:103590001D4B03EB42104750E07BA17BB13241EA67
:1035A000004103EB4213996017E0012785F848308A
:1035B00002220023617B207BFEF77AFE637B227B65
:1035C000617C42EA0342114B49015A5004222368AC
:1035D00003F58053DA65002FD0D1AA6B0521D36C97
:1035E000206843F00403D364FFF7E4FA304606B0E2
:1035F000BDE8F0810027D9E72326F7E70D4C00004E
:10360000014C0000854C000000C0035024D603503C
:1036100010B50446FDF76AFC4FF47A729042B0FB95
:10362000F2F105D23621BDE810400C4801F03ABA5B
:103630000B4BB3FBF1F30B49884201D93C21F2E774
:1036400002FB04F0B0FBF3F0022806D9BDE81040FD
:103650000323B0FBF3F0FCF773BD10BDB4530000BF
:1036600040420F00E7CD9A3B2DE9F04F91B09B46C9
:103670000B1E0A93AD4B904614BF81469946002419
:103680001A9E9BF8000070B9444538BF2246434655
:103690004FF000000A9928BF08F1FF32C8472046C2
:1036A00011B0BDE8F08F25280BF1010B06D02246A2
:1036B00043460A99651CC8472C46E2E700230DE003
:1036C0002D2A2AD0302A06D0303A092A4FF0000796
:1036D00011D80A2532E043F001038B46594611F810
:1036E000012B2B2A1CD0EBD8202A1CD0232A1DD03A
:1036F0002A2A2BD000279BF800202E2A64D19BF881
:1037000001100BF10102A1F13000092843F480639C
:1037100051D800254FF00A0C26E043F00203DCE705
:1037200043F00403D9E743F00803D6E743F010035E
:10373000D3E78B4605FB0722A2F13007594611F863
:10374000012BA2F130000928F3D9D4E756F8047B05
:103750008B46002FBCBF43F002037F42CBE70246FB
:103760000CFB0511A1F13005104610F8011BA1F169
:10377000300EBEF1090FF2D9114611F8010B6C2879
:103780002CD024D8682830D06A2837D011468B46F0
:103790001BF8010B672875D857284BD8452807D048
:1037A00085D9462800F03181472880D143F4006351
:1037B00043F020033FE12A2907D156F8045B0BF1BF
:1037C000020225EAE575D7E75A460025D4E77428B2
:1037D00001D07A28DAD143F48073D8E750786C2886
:1037E000F9D143F44073911CD1E75078682802D096
:1037F00043F08003CBE743F0C003F4E743F40073E6
:10380000C5E70A2A00F06281072A7FF450AF43F02F
:10381000210305930823CDE903531023CDE90113B8
:1038200056F8043B22460093484643460A9901F065
:1038300060FBFAE0A0F158020F2A3FF638AF01A171
:1038400051F822F0B5380000AF360000AF36000066
:10385000AF360000AF360000AF360000AF360000D4
:10386000AF360000AF360000AF360000B5380000BC
:10387000553A0000B53800002F3A00000F3A00001A
:103880002F3A0000A0F16902D2B20F2A3FF60FAF23
:10389000012149F2410C914011EA0C01B1D0782884
:1038A00003F4806122D1002900F0908023F00D0202
:1038B000102307E0622803F4806220D142BB23F08A
:1038C0000C02022312F4007100F08380CDE907722C
:1038D0000022CDE9043206F1070A2AF0070A06950C
:1038E0000292FAE80223CDE900233DE06F2812D1CD
:1038F00023F00C0209B123F00D020823E2E7582857
:1039000016D1002A39D123F00C0242F02002CFE771
:1039100023F00D02D5E7692823F0100230D023F000
:103920001C0209B123F01D020A23CBE7314D000030
:1039300042BB23F01002930527D5073626F0070671
:10394000B24671685AF8083B0A26CDE9077200278B
:10395000CA0F0029CDE904670695029202DA5B429C
:1039600061EB4101CDE900314346224648460A99C0
:1039700001F002FB0446564683E623F00D02C4E73D
:103980000029D8D023F01102D5E7D00506F1040AAA
:1039900001D5336802E0510613D53378CDE90472BE
:1039A0000A22002B02924FEAD37203950192B8BF0C
:1039B0005B4200934346224648460A9901F099FA31
:1039C000D8E71306E5D5B6F90030E7E723F00C0297
:1039D0006EE7D00506F1040A06D5CDE90472CDE9FB
:1039E000023501913368E4E7510608D53178CDE915
:1039F00002350023CDE90472CDE90013DAE731681E
:103A000012F0800F18BF89B2F1E743F02003CDE92F
:103A10000173073626F007060095B6EC020B434605
:103A2000224648460A99FCF74BFD044629E66728DA
:103A300001D143F40063CDE90173073626F0070690
:103A40000095B6EC020B4346224648460A99FCF71D
:103A50007BFBEAE713F0020523D04FF0010A631C59
:103A60000B93224643460A9916F8040BC8475DB3E8
:103A700054460B9A1EE0434620200A99C8470AEB99
:103A800004020AF1010A5745F5D8002F07F1FF3368
:103A900008BF002307F1010A1C4408BF4FF0020AC7
:103AA000DDE7AA46EBE7551C434620200A99C847A4
:103AB0002A460134BC42F6D3A7EB0A03574538BF68
:103AC00000230B9A1A440B920B9CDAE53246002D28
:103AD00052F8046B14BF29464FF0FF310B92324667
:103AE0003144107808B18A4211D1A2EB060A13F4CE
:103AF00080620C9202D0AA4528BFAA4613F00203A6
:103B00000D931BD1AAEB040322460F9308E0013268
:103B1000E7E7531C0E93202043460A99C8470E9AA4
:103B20000F9BD3189F42F4D8A7EB0A03574538BF21
:103B300000230AF101021C4403EB020AA31B0E93AB
:103B400004E01D46434622460A99C8470E9BF418D6
:103B500016F8010B28B10C9B002BF3D06B1E002D27
:103B6000EFD10D9B93B12246AAEB040505E0561C4C
:103B7000434620200A99C847324653199F42F6D837
:103B8000A7EB0A03574538BF00231C440B9E78E57A
:103B90000FB41FB506AA52F8043B02A90392009283
:103BA00004484FF0FF32FFF75FFD05B05DF804EB0E
:103BB00004B070471750000081F0004102E000BFE0
:103BC00083F0004330B54FEA41044FEA430594EADD
:103BD000050F08BF90EA020F1FBF54EA000C55EA18
:103BE000020C7FEA645C7FEA655C00F0E2804FEAE9
:103BF0005454D4EB5555B8BF6D420CDD2C4480EACB
:103C0000020281EA030382EA000083EA010180EAFA
:103C1000020281EA0303362D88BF30BD11F0004F48
:103C20004FEA01314FF4801C4CEA113102D040427E
:103C300061EB410113F0004F4FEA03334CEA1333B9
:103C400002D0524263EB430394EA050F00F0A780D1
:103C5000A4F10104D5F1200E0DDB02FA0EFC22FACC
:103C600005F2801841F1000103FA0EF2801843FAC0
:103C700005F359410EE0A5F120050EF1200E012AB1
:103C800003FA0EFC28BF4CF0020C43FA05F3C018EF
:103C900051EBE37101F0004507D54FF0000EDCF168
:103CA000000C7EEB00006EEB0101B1F5801F1BD311
:103CB000B1F5001F0CD349085FEA30004FEA3C0C15
:103CC00004F101044FEA445212F5800F80F09A800B
:103CD000BCF1004F08BF5FEA500C50F1000041EB0F
:103CE000045141EA050130BD5FEA4C0C404141EB13
:103CF0000101013C28BFB1F5801FE9D291F0000F0E
:103D000004BF01460020B1FA81F308BF2033A3F1BC
:103D10000B03B3F120020CDA0C3208DD02F1140CB3
:103D2000C2F10C0201FA0CF021FA02F10CE002F1EE
:103D30001402D8BFC2F1200C01FA02F120FA0CFCE7
:103D4000DCBF41EA0C019040E41AA2BF01EB045130
:103D5000294330BD6FEA04041F3C1CDA0C340EDC2E
:103D600004F11404C4F1200220FA04F001FA02F371
:103D700040EA030021FA04F345EA030130BDC4F12F
:103D80000C04C4F1200220FA02F001FA04F340EA24
:103D90000300294630BD21FA04F0294630BD94F0D5
:103DA000000F83F4801306BF81F480110134013DBC
:103DB0004EE77FEA645C18BF7FEA655C29D094EA2D
:103DC000050F08BF90EA020F05D054EA000C04BFAB
:103DD0001946104630BD91EA030F1EBF0021002096
:103DE00030BD5FEA545C05D14000494128BF41F035
:103DF000004130BD14F580043CBF01F5801130BD99
:103E000001F0004545F0FE4141F470014FF0000023
:103E100030BD7FEA645C1ABF194610467FEA655CD4
:103E20001CBF0B46024650EA013406BF52EA033576
:103E300091EA030F41F4002130BD00BF90F0000F64
:103E400004BF0021704730B54FF4806404F13204A0
:103E50004FF000054FF0000150E700BF90F0000F59
:103E600004BF0021704730B54FF4806404F1320480
:103E700010F0004548BF40424FF000013EE700BF50
:103E800042004FEAE2014FEA31014FEA02701FBFE0
:103E900012F07F4393F07F4F81F06051704732F012
:103EA0007F4208BF704793F07F4F04BF41F4002169
:103EB000704730B54FF4607401F0004521F00041C7
:103EC0001CE700BF50EA010208BF704730B54FF051
:103ED00000050AE050EA010208BF704730B511F052
:103EE000004502D5404261EB41014FF4806404F18A
:103EF00032045FEA915C3FF4D8AE4FF003025FEA10
:103F0000DC0C18BF03325FEADC0C18BF033202EB93
:103F1000DC02C2F1200300FA03FC20FA02F001FAED
:103F200003FE40EA0E0021FA02F11444BDE600BF90
:103F300070B54FF0FF0C4CF4E06C1CEA11541DBF3F
:103F40001CEA135594EA0C0F95EA0C0F00F0DEF80A
:103F50002C4481EA030621EA4C5123EA4C5350EAEF
:103F6000013518BF52EA033541F4801143F4801340
:103F700038D0A0FB02CE4FF00005E1FB02E506F0D1
:103F80000042E0FB03E54FF00006E1FB03569CF026
:103F9000000F18BF4EF0010EA4F1FF04B6F5007F2C
:103FA00064F5407404D25FEA4E0E6D4146EB06069E
:103FB00042EAC62141EA55514FEAC52040EA5E5027
:103FC0004FEACE2EB4F1FD0C88BFBCF5E06F1ED8D1
:103FD000BEF1004F08BF5FEA500E50F1000041EB08
:103FE000045170BD06F0004646EA010140EA0200B5
:103FF00081EA0301B4EB5C04C2BFD4EB0C0541EAD7
:10400000045170BD41F480114FF0000E013C00F3EB
:10401000AB8014F1360FDEBF002001F0004170BD0F
:10402000C4F10004203C35DA0C341BDC04F1140428
:10403000C4F1200500FA05F320FA04F001FA05F2B4
:1040400040EA020001F0004221F0004110EBD37081
:1040500021FA04F642EB06015EEA430E08BF20EAAD
:10406000D37070BDC4F10C04C4F1200500FA04F350
:1040700020FA05F001FA04F240EA020001F00041E2
:1040800010EBD37041F100015EEA430E08BF20EA55
:10409000D37070BDC4F1200500FA05F24EEA020E9D
:1040A00020FA04F301FA05F243EA020321FA04F0CC
:1040B00001F0004121FA04F220EA020000EBD37083
:1040C0005EEA430E08BF20EAD37070BD94F0000F83
:1040D0000FD101F00046400041EB010111F4801FB7
:1040E00008BF013CF7D041EA060195F0000F18BF68
:1040F000704703F00046520043EB030313F4801FA4
:1041000008BF013DF7D043EA0603704794EA0C0F5D
:104110000CEA135518BF95EA0C0F0CD050EA410673
:1041200018BF52EA4306D1D181EA030101F00041F0
:104130004FF0000070BD50EA410606BF1046194618
:1041400052EA430619D094EA0C0F02D150EA013624
:1041500013D195EA0C0F05D152EA03361CBF104665
:1041600019460AD181EA030101F0004141F0FE4104
:1041700041F470014FF0000070BD41F0FE4141F488
:10418000780170BD70B54FF0FF0C4CF4E06C1CEA88
:1041900011541DBF1CEA135594EA0C0F95EA0C0F3D
:1041A00000F0A7F8A4EB050481EA030E52EA0335F8
:1041B0004FEA013100F088804FEA03334FF0805519
:1041C00045EA131343EA12634FEA022245EA111546
:1041D00045EA10654FEA00260EF000419D4208BFF7
:1041E000964244F1FD0404F5407402D25B084FEAA4
:1041F0003202B61A65EB03055B084FEA32024FF450
:1042000080104FF4002CB6EB020E75EB030E22BFAC
:10421000B61A754640EA0C005B084FEA3202B6EB6C
:10422000020E75EB030E22BFB61A754640EA5C001B
:104230005B084FEA3202B6EB020E75EB030E22BFAB
:10424000B61A754640EA9C005B084FEA3202B6EBAC
:10425000020E75EB030E22BFB61A754640EADC006B
:1042600055EA060E18D04FEA051545EA16754FEACD
:1042700006164FEAC30343EA52734FEAC2025FEAEB
:104280001C1CC0D111F4801F0BD141EA00014FF07A
:1042900000004FF0004CB6E711F4801F04BF01434B
:1042A0000020B4F1FD0C88BFBCF5E06F3FF6AFAE67
:1042B000B5EB030C04BFB6EB020C5FEA500C50F1F7
:1042C000000041EB045170BD0EF0004E4EEA11317A
:1042D00014EB5C04C2BFD4EB0C0541EA045170BD81
:1042E00041F480114FF0000E013C90E645EA060EC5
:1042F0008DE60CEA135594EA0C0F08BF95EA0C0FF3
:104300003FF43BAF94EA0C0F0AD150EA01347FF43A
:1043100034AF95EA0C0F7FF425AF104619462CE711
:1043200095EA0C0F06D152EA03353FF4FDAE104674
:10433000194622E750EA410618BF52EA43067FF4C5
:10434000C5AE50EA41047FF40DAF52EA43057FF455
:10435000EBAE12E74FF0FF3C06E000BF4FF0010C60
:1043600002E000BF4FF0010C4DF804CD4FEA410CC4
:104370007FEA6C5C4FEA430C18BF7FEA6C5C1BD091
:1043800001B050EA410C0CBF52EA430C91EA030F12
:1043900002BF90EA020F0020704710F1000F91EA6F
:1043A000030F58BF994208BF90422CBFD8176FEA3D
:1043B000E37040F0010070474FEA410C7FEA6C5C0B
:1043C00002D150EA013C07D14FEA430C7FEA6C5C12
:1043D000D6D152EA033CD3D05DF8040B704700BF3E
:1043E0008446104662468C461946634600E000BF8C
:1043F00001B5FFF7B7FF002848BF10F1000F01BD5E
:104400004DF808EDFFF7F4FF0CBF012000205DF828
:1044100008FB00BF4DF808EDFFF7EAFF34BF0120AD
:1044200000205DF808FB00BF4DF808EDFFF7E0FF46
:1044300094BF012000205DF808FB00BF4DF808ED97
:10444000FFF7CEFF94BF012000205DF808FB00BFFE
:104450004DF808EDFFF7C4FF34BF012000205DF8E0
:1044600008FB00BF4FEA410212F5001215D211D528
:104470006FF47873B3EB625212D94FEAC12343F061
:10448000004343EA505311F0004F23FA02F018BFE3
:10449000404270474FF00000704750EA013005D1AC
:1044A00011F0004008BF6FF0004070474FF000006F
:1044B000704700BF4A0011D212F5001211D20DD57B
:1044C0006FF47873B3EB62520ED44FEAC12343F01A
:1044D000004343EA505323FA02F070474FF00000C4
:1044E000704750EA013002D14FF0FF3070474FF073
:1044F000000070474FEA4102B2F1E04324BFB3F538
:10450000001CDCF1FE5C0DD901F0004C4FEAC0024A
:104510004CEA5070B2F1004F40EB830008BF20F02E
:104520000100704711F0804F21D113F13872BCBFE8
:1045300001F00040704741F480114FEA5252C2F13D
:104540001802C2F1200C10FA0CF320FA02F018BF86
:1045500040F001004FEAC1234FEAD32303FA0CFCD9
:1045600040EA0C0023FA02F34FEA4303CCE77FEA68
:10457000625307D150EA01331EBF4FF0FE4040F4B2
:104580004000704701F0004040F0FE4040F4000061
:10459000704700BF53B94AB9002908BF00281CBFA3
:1045A0004FF0FF314FF0FF3000F082B9ADF1080C51
:1045B0006DE904CE00F006F8DDF804E0DDE9022341
:1045C00004B070472DE9F04F099D0C46002B4DD1EA
:1045D0008A420F4684469646B2FA82F360D94BB1BE
:1045E00002FA03FEC3F120029F4000FA03FC20FA06
:1045F00002F217434FEA1E461FFA8EF44FEA1C429E
:10460000B7FBF6F106FB117701FB04F042EA074223
:10461000904208D91EEB020201F1FF3702D290420C
:1046200000F231813946121A1FFA8CFCB2FBF6F007
:1046300006FB102200FB04F44CEA024C644508D946
:104640001EEB0C0C00F1FF3202D2644500F21E8119
:10465000104640EA0140ACEB040C002125B12CFAD5
:1046600003F30022C5E90032BDE8F08F8B4205D983
:104670000DB1C5E9000100210846F5E7B3FA83F161
:1046800000294DD1A342C0F0F380904280F0F08029
:10469000064623460846002DE6D0C5E90063E3E759
:1046A000002B40F0A3808A1A4FEA1E471FFA8EF6AD
:1046B0000121B2FBF7F407FB14204FEA1C4242EA47
:1046C000004206FB04F090420FD91EEB020204F1F7
:1046D000FF382CBF4FF001094FF00009904203D979
:1046E000B9F1000F00F0CC804446121A1FFA8CFC7E
:1046F000B2FBF7F007FB102200FB06F64CEA024C77
:10470000664508D91EEB0C0C00F1FF3202D266455B
:1047100000F2B3801046ACEB060C40EA04409DE783
:10472000C1F120068B4004FA01FE22FA06F720FAB6
:1047300006FCF4408A401F434EEA0C0300FA01FED7
:104740004FEA17484FEA13491FFA87FCB4FBF8F009
:1047500008FB104449EA044400FB0CF9A1450ED9BA
:104760003C1900F1FF3A2CBF4FF0010B4FF0000B4A
:10477000A14503D9BBF1000F00F08B805046A4EB9C
:1047800009041FFA83F9B4FBF8F308FB134403FB95
:104790000CFC49EA0444A44506D93C1903F1FF384E
:1047A00001D2A4457BD8434643EA0040A4EB0C0465
:1047B000A0FB02984445CC46434602D306D1CE45E1
:1047C00004D20138B9EB020C68EB0703002D6CD062
:1047D000BEEB0C0264EB030422FA01F304FA06F6C2
:1047E000CC4000211E43C5E900643DE702FA03FE08
:1047F000C3F1200104FA03F200FA03FCCC404FEAB3
:104800001E4720FA01F11FFA8EF6B4FBF7F00A43B7
:1048100007FB1044110C41EA044100FB06F48C42F2
:104820000ED91EEB010100F1FF382CBF4FF001093A
:104830004FF000098C4202D9B9F1000F2CD040464C
:10484000091B92B2B1FBF7F407FB141142EA0142D3
:1048500004FB06F1914207D91EEB020204F1FF3876
:1048600001D291421ED84446521A44EA004120E740
:10487000861A64EB030301200DE7F44402384AE78B
:10488000023C724431E702397244CCE6F444023807
:10489000DFE602383C4472E702387144D0E7023B5D
:1048A0003C4481E7023C7244DEE72946DCE600BF77
:1048B000704700BF08B5064B044613B10021AFF3A3
:1048C0000080044B1B6803B19847204600F0EBF8CA
:1048D000000000003412002070B50D4D00260D4C74
:1048E000641BA410A64209D10B4D00260B4C00F00E
:1048F000B7FB641BA410A64205D170BD55F8043B5C
:1049000001369847EEE755F8043B01369847F2E741
:104910001410002014100020141000201810002083
:10492000704708B501212E20FCF7AAFFBDE808401A
:1049300001213A20FCF7A4BF08B5FFF7F2FFFBF70F
:10494000E3FFBDE80840FBF7F5BF08B500F0D8F974
:10495000FBF7C2FF00F0E1F9FFF7E2FFFAE700F032
:1049600021B808B5FCF7F8FABDE8084000F06EB8C9
:1049700008B500F015F8BDE80840FCF77BB97047B2
:1049800070477047704770477047FCF781B908B5AA
:104990000123042218461146FDF78AFC002008BDB9
:1049A000FFF7F5BF08B50422002311460120FDF7EB
:1049B0007FFC002008BD08B501213A20FCF760FF0C
:1049C000FFF7CDFFBDE80840FCF774B901213A209C
:1049D000FCF756BF70B5002506462C46052C20D89E
:1049E000DFE804F003070B0F13175B210820FCF727
:1049F00013FB0C210820FCF70FFBD1210820FCF74A
:104A00000BFB80210820FCF707FB00210820FCF7A6
:104A100003FB6C1C2946E4B208202546FCF7FCFA8F
:104A20000624A4F10E03012B05D85A210820FCF717
:104A3000F3FA0134D2E7102C05D1BDE870405D21B6
:104A40000820FCF7E9BAB31F195DEFE708B50820A5
:104A500000F02AF8BDE80840082000F030B807B59B
:104A6000012320F07F4040EA8170019068468DF874
:104A70000030FFF7AFFF03B05DF804FBFEE710B5B1
:104A80003AB1002350F8234041F8234001339A42C1
:104A9000F8D110BD002070474FF4004070474FF42C
:104AA0007A707047FEE7FEE74FF060420123D2F8CC
:104AB000001E83400B430020C2F8003E70474FF0B9
:104AC00060410122D1F8003E824023EA0203002027
:104AD000C1F8003E704710B588B004460E980092A9
:104AE00007900D98224606909DF8300005900B988F
:104AF00004909DF8280003900020CDE901300B467A
:104B00000121FCF7ABFA08B010BD08B5FCF700FABC
:104B1000BDE808400021FCF78DBE0029CCBF012173
:104B20000021FCF787BE02214FF42070FDF7D0B9B9
:104B300010B5FCF7DBF90446FCF7DEFCC0F102011E
:104B40002046FFF7EAFF01210020FDF7C3FAFDF739
:104B500051FABDE81040FCF789BFEFF3108072B640
:104B6000704700B962B67047EFF31180302383F3CA
:104B70001188704780F3118870477047704770B58F
:104B8000054614460E46FFF7E8FF2B685C403440AC
:104B90005C402C60BDE87040FFF7E3BF704783695D
:104BA0005A06FCD5C16383699B06FCD5406AC0B236
:104BB000704783695B06FCD5C163704770B50C46CE
:104BC000154610B9FEF7E2F938B143682BB12A4611
:104BD0002146BDE8704000681847232070BD07B526
:104BE00001228DF807100DF10701FFF7E7FF03B071
:104BF0005DF804FB80F82C10704790F82C0070478B
:104C0000826BD36C43F00403D364704710B5044641
:104C1000826B93695906FCD5002394F841101A461B
:104C200094F84000FDF744FB002394F843101A4623
:104C300094F84200FDF73CFB94F84830DA0707D5BA
:104C4000002394F845101A4694F84400FDF730FB11
:104C500094F848309B0707D5002394F847101A466C
:104C600094F84600FDF724FBA06B0021C36C23F0F1
:104C70000403C364FDF79EFFE06B0021FCF700FE18
:104C8000002010BD08B5806BFFF793FF002008BD22
:104C900038B50468237EA06B33B9C36C23F00403DA
:104CA000C3640123237638BD637E23B394F82D308B
:104CB0000BB30025132184F83550FFF77AFFA36B5F
:104CC000DA6C42F00402DA645B6ADBB2112B0DD1BC
:104CD000012384F834303022237A534303F1A04374
:104CE00003F58023DB6E013B2363DCE7132BDAD172
:104CF00084F83450EFE7C36C23F00403C364D2E7B5
:104D000008B5FBF72DFFFFF72CFEFFF731FEFFF78D
:104D100036FEBDE80840FFF733BE08B5FFF731FEA9
:104D2000FFF730FEFFF72FFEBDE80840FFF72CBE6F
:104D300070472DE9F84F9846DDE90B490D9B154664
:104D40009A0706460F4623D02A460A9B03EB040A1D
:104D50001444A24220D10D9B9B0705D5A2EB050A66
:104D6000D14505EB0A0420D82046BDE8F88F43461C
:104D700039462020B0470AF1010ACA450AEB0B0266
:104D8000F5D3A9EB04024C4588BF00222A44DCE796
:104D9000A246A5EB040BF0E702F1010B43463946AE
:104DA0001AF8010DB0475A46D3E743462246394622
:104DB0002020B0470AF1010AD2E72DE9F0479E46CC
:104DC000DDE90D3CDDE90874DDE90B651CF0020F3F
:104DD0009DF828801FD10CF001094BB1B9F1000FEB
:104DE00006D0B8F1000F02D11CF00C0F00D0013B2F
:104DF0004FF0300A02E007F804A00134A54201D9BF
:104E0000202CF8D1B9F1000F05D04FF03009A342A2
:104E100001D9202C1BD11CF0100F15D01CF4806F71
:104E200032D1C4B1AC4201D09C422DD1651E12D00A
:104E3000102E3FD11CF0200FA4F1020456D1782689
:104E40003E5530266C1C7E55202C29D00DE007F8ED
:104E500004900134DBE7102E10D11CF0200F2FD16D
:104E600078243C7030247C700224B8F1000F31D0DB
:104E70002D253D55013414E06224F2E7022EFBD0CB
:104E800030243C700124F0E7102E1BD11CF0200FC1
:104E90002AD1202C04D07826651C3E55202DD0D157
:104EA0002024CDE90A3CCDE908747346BDE8F047FB
:104EB000FFF73FBF022EC4D162247C550135EDE7D8
:104EC0005824CEE7022E03D1202CE9D02546F3E763
:104ED0002546E3E71CF0040F01D02B25C9E71CF0A1
:104EE000080FDED02025C4E7202CD9D05826651C19
:104EF000D3E72DE9F04391B0189D1A9F1D9E2DB95F
:104F000026F0100416F4806F264622D116F0200FEA
:104F100014BF4FF0410E4FF0610EAC4600250DF16D
:104F20002008AEF10A0EBCFBF7F907FB19C95FFABE
:104F300089F4B9F1090F94BF30347444E4B2BC452C
:104F400008F8014B05F10105BCFBF7F401D3202D56
:104F500010D11C9C069605941B9CCDE903749DF80A
:104F60006440CDE9015408AC0094FFF726FF11B06E
:104F7000BDE8F083A446D6E72DE9F04F95B0CDE922
:104F80000A23DDE91E76DDE9229B57EA0603CDE917
:104F90000801269C05D124F0100314F4806F1C46F0
:104FA00037D114F0200F14BF4123612300250DF1E8
:104FB000300AA3F10A0831464A465B463846FFF7F5
:104FC000E9FAD2B2092A94BF303242444F45D2B2F4
:104FD00076EB0B0605F101050AF8012B01D3202D14
:104FE00014D1259B06940593249BDDE90801CDE9A6
:104FF00003939DF88030CDE901530CAB0093DDE9BC
:105000000A23FFF7DAFE15B0BDE8F08F07460E461B
:10501000D1E70025E5E708B100F001B87047014687
:105020000020FFF7DCBD02440346934200D17047E5
:1050300003F8011BF9E70A44431E914200D170476F
:1050400010B511F8014B914203F8014FF9D110BD91
:105050000000000000000000000000000000000050
:10506000F8B500BFF8BC08BC9E467047F8B500BF55
:10507000F8BC08BC9E46704700000000000000001D
:105080000000000000000000000000000000000020
:105090000000000000000000000000000000000010
:1050A000496E69740D0A0074656D702025302E33C9
:1050B00066200D0A00000000010100000000000051
:1050C000A0860100000000002E2E2F6175746F670E
:1050D000656E2F736C5F696F73747265616D5F6964
:1050E0006E69745F75736172745F696E7374616EFB
:1050F0006365732E630000000500000000000000DF
:1051000000C20100000500000010000000000000C7
:1051100000000000050000000000000040420F00F9
:105120000501000000000000000000000000000079
:105130001E0000032E2E2F6765636B6F5F73646B19
:105140005F342E342E312F706C6174666F726D2F48
:10515000656D6C69622F7372632F656D5F636D752A
:105160002E63002E2E2F6765636B6F5F73646B5F1A
:10517000342E342E312F706C6174666F726D2F6512
:105180006D6C69622F7372632F656D5F656D752E2F
:105190006300433A5C55736572735C737573686141
:1051A0005C53696D706C6963697479537475646973
:1051B0006F5C76355F776F726B73706163655C4CA3
:1051C0004D37325F6472697665725C6765636B6FD9
:1051D0005F73646B5F342E342E315C706C61746667
:1051E0006F726D5C656D6C69625C696E632F656D75
:1051F0005F6770696F2E68002E2E2F6765636B6F77
:105200005F73646B5F342E342E312F706C61746663
:105210006F726D2F656D6C69622F7372632F656D90
:105220005F6770696F2E6300FF011F00FF000F00B2
:105230002E2E2F6765636B6F5F73646B5F342E3444
:105240002E312F706C6174666F726D2F656D6C6995
:10525000622F7372632F656D5F6932632E6300087E
:105260000911082E2E2F6765636B6F5F73646B5F88
:10527000342E342E312F706C6174666F726D2F6511
:105280006D6C69622F7372632F656D5F6C646D6105
:105290002E6300433A5C55736572735C7375736873
:1052A000615C53696D706C6963697479537475647A
:1052B000696F5C76355F776F726B73706163655C85
:1052C0004C4D37325F6472697665725C6765636BFB
:1052D0006F5F73646B5F342E342E315C706C61745D
:1052E000666F726D5C656D6C69625C696E632F657B
:1052F0006D5F6275732E68002E2E2F6765636B6F6E
:105300005F73646B5F342E342E312F706C61746662
:105310006F726D2F656D6C69622F7372632F656D8F
:105320005F75736172742E6300010304010101094A
:10533000030000000B0000000B0000000200000052
:105340000000202000000000030000008C8C3C00C6
:105350000000000000000000000000000126000026
:105360000400000000000000000100000000000038
:105370002E2E2F6765636B6F5F73646B5F342E3403
:105380002E312F706C6174666F726D2F736572763B
:105390006963652F696F73747265616D2F737263D2
:1053A0002F736C5F696F73747265616D5F75617285
:1053B000742E63002E2E2F6765636B6F5F73646BB3
:1053C0005F342E342E312F706C6174666F726D2FC6
:1053D000736572766963652F7564656C61792F7387
:1053E00072632F736C5F7564656C61792E63006600
:1053F0006E692B00666E69006E616E00666E692DC7
:105400000000000000000000000000000000F03F6D
:10541000000000000000244000000000000059408F
:105420000000000000408F40000000000088C340E2
:1054300000000000006AF8400000000080842E4157
:1054400000000000D01263410000000084D79741A3
:085450000000000065CDCD4114
:0854580004B4FF7F0100000015
:0C5460006C540000001000200700000049
:10546C00C0EA2101C0EA21010080000000F04902DD
:0C547C00FFFFFFFF3908000011080000CE
:0400000300000DE507
:00000001FF
